:100000000C945D000C9485000C9485000C94850084
:100010000C9485000C9485000C9485000C9485004C
:100020000C9485000C9485000C9485000C94890335
:100030000C9485000C9485000C9485000C9485002C
:100040000C94E7020C9485000C9457030C94310334
:100050000C9485000C9485000C9485000C9485000C
:100060000C9485000C9485000000000024002700FB
:100070002A0000000000250028002B0004040404CE
:100080000404040402020202020203030303030342
:10009000010204081020408001020408102001021F
:1000A00004081020000000080002010000030407FB
:1000B0000000000000000000660411241FBECFEF06
:1000C000D8E0DEBFCDBF11E0A0E0B1E0EAE4F0E1AE
:1000D00002C005900D92A231B107D9F721E0A2E14B
:1000E000B1E001C01D92AF3FB207E1F710E0CDE5EE
:1000F000D0E004C02197FE010E947507CC35D107DE
:10010000C9F70E94AE040C9423080C94000090E000
:10011000FC01EC55FF4F2491FC01E057FF4F349157
:10012000FC01E458FF4FE491EE2309F43CC0222384
:1001300039F1233091F038F42130A9F0223001F563
:1001400084B58F7D12C0273091F02830A1F0243083
:10015000B9F4809180008F7D03C0809180008F77FB
:10016000809380000DC084B58F7784BD09C08091D5
:10017000B0008F7703C08091B0008F7D8093B00076
:10018000F0E0EE0FFF1FEE58FF4FA591B4919FB71F
:10019000F894611104C08C913095382302C0EC9121
:1001A0003E2B3C939FBF0895CF92DF92EF92FF9238
:1001B0000F931F93CF93DF936C017A018B01C0E003
:1001C000D0E0CE15DF0581F0D8016D918D01D6010B
:1001D000ED91FC910190F081E02DC6010995892BEC
:1001E00011F02196EECF7E01C701DF91CF911F91D3
:1001F0000F91FF90EF90DF90CF900895089580E0E9
:1002000090E00895FC01538D448D252F30E0842F1C
:1002100090E0821B930B541710F0CF96089501972E
:100220000895FC01918D828D981761F0828DDF0118
:10023000A80FB11D5D968C91928D9F5F9F73928FD9
:1002400090E008958FEF9FEF08950F931F93CF9342
:10025000DF938C01C0E0D0E02FB7F8948091490182
:1002600090914A01A0914B01B0914C012FBF809316
:10027000550190935601A0935701B09358018DE416
:1002800091E00E94110197FF25C02FB7F89480914B
:10029000490190914A01A0914B01B0914C012FBFAF
:1002A000409155015091560160915701709158014C
:1002B000841B950BA60BB70B409151015091520135
:1002C000609153017091540184179507A607B707F1
:1002D000B0F208C0F80181938F012196C430D10596
:1002E00009F0BACFCE01DF91CF911F910F91089500
:1002F000FC01918D828D981731F0828DE80FF11DF0
:10030000858D90E008958FEF9FEF0895FC01918D0A
:10031000228D892F90E0805C9F4F821B91098F7303
:10032000992708958DE491E00E94860121E0892BB0
:1003300009F420E0822F0895FC01848DDF01A80FCD
:10034000B11DA35ABF4F2C91848D90E001968F73FD
:100350009927848FA689B7892C93A089B1898C911C
:10036000837080648C93938D848D981306C002886B
:10037000F389E02D80818F7D80830895EF92FF9235
:100380000F931F93CF93DF93EC0181E0888F9B8DB8
:100390008C8D981305C0E889F989808185FD26C078
:1003A000F62E0B8D10E00F5F1F4F0F731127E02EFD
:1003B0008C8DE8120CC00FB607FCFACFE889F989DA
:1003C000808185FFF5CFCE010E949C01F1CF8B8DFE
:1003D000FE01E80FF11DE35AFF4FF0829FB7F8943A
:1003E0000B8FEA89FB89808180620AC09FB7F894ED
:1003F000EE89FF896083E889F98980818370806450
:1004000080839FBF81E090E0DF91CF911F910F919A
:10041000FF90EF900895CF93DF93EC01888D8823B0
:10042000C9F0EA89FB89808185FD05C0A889B98961
:100430008C9186FD0FC00FB607FCF5CF808185FF3C
:10044000F2CFA889B9898C9185FFEDCFCE010E94AA
:100450009C01E7CFDF91CF91089580E090E0892B58
:1004600029F00E94920181110C9400000895FC0172
:1004700090819C3088F5818128E830E0281B310983
:1004800087FD3395220F331F220F331F6217730727
:1004900084F0828148E552E0481B510987FD53955D
:1004A000440F551F440F551F9B01461757070CF467
:1004B0009A0122503109220F331F4FB7F894892F28
:1004C00090E0FC01EE0FFF1F8E0F9F1FFC01EC5E02
:1004D000FE4F328321834FBF0895CF93DF93DC011A
:1004E0008C918C3008F06DC0CB019927FC01E0574E
:1004F000FF4F2491FC01E458FF4F8491882399F029
:1005000090E0880F991FFC01E859FF4FC591D491E5
:10051000FC01EE58FF4F859194918FB7F894E881D4
:10052000E22BE8838FBF8C91E82FF0E09F01220F30
:10053000331FE20FF31FEC5EFE4F6F739081907CD0
:10054000692B608311961C92119712961C92129738
:100550006CE00E9469079CE0899FB001112440E093
:1005600050E09B01240F351FF901EE0FFF1F2E0FE6
:100570003F1FF901EC5EFE4F908196FD16C04F5F64
:100580005F4F4C30510569F781110FC01092800008
:1005900082E0809381001092850010928400B19ACD
:1005A00080916F00826080936F00EC91F0E0CF014A
:1005B000880F991FE80FF91FEC5EFE4F8081806461
:1005C00080838C91DF91CF9108950E941E081F9225
:1005D0000F920FB60F9211242F933F938F939F93F7
:1005E000AF93BF938091490190914A01A0914B0133
:1005F000B0914C013091480123E0230F2D3720F4B6
:100600000196A11DB11D05C026E8230F0296A11D6C
:10061000B11D209348018093490190934A01A09312
:100620004B01B0934C018091440190914501A09100
:100630004601B09147010196A11DB11D809344016F
:1006400090934501A0934601B0934701BF91AF91AC
:100650009F918F913F912F910F900FBE0F901F9000
:1006600018951F920F920FB60F9211242F933F935C
:100670004F935F936F937F938F939F93AF93BF93AA
:10068000EF93FF938DE491E00E949C01FF91EF9125
:10069000BF91AF919F918F917F916F915F914F919A
:1006A0003F912F910F900FBE0F901F9018951F92A2
:1006B0000F920FB60F9211242F938F939F93EF9366
:1006C000FF93E0915D01F0915E018081E091630113
:1006D000F091640182FD12C09081809166018F5F6C
:1006E0008F7320916701821751F0E0916601F0E06D
:1006F000E35BFE4F958F8093660101C08081FF917F
:10070000EF919F918F912F910F900FBE0F901F909F
:1007100018951F920F920FB60F9211242F933F93AB
:100720004F935F936F937F938F939F93AF93BF93F9
:10073000EF93FF938091120187FF05C0109285000F
:10074000109284001BC020911201022E000C330B6A
:100750008091130190E02817390784F480911201E9
:10076000082E000C990BFC01EE0FFF1F8E0F9F1F30
:10077000FC01EC5EFE4F808186FD15C08091120168
:100780008F5F8093120120911201022E000C330B17
:100790008091130190E028173907C4F48091120169
:1007A0008C3064F113C080911201082E000C990B5B
:1007B000FC01EE0FFF1F8E0F9F1FFC01EC5EFE4F32
:1007C000808160E08F730E948700D8CF8091840081
:1007D00090918500049680349C4918F480E49CE94B
:1007E00005C08091840090918500049690938900C3
:1007F000809388008FEF809312013BC0209184008A
:100800003091850080911201082E000C990BFC019B
:10081000EE0FFF1F8E0F9F1FFC01EC5EFE4F8181CC
:100820009281820F931F909389008093880080911A
:100830001201082E000C990BFC01EE0FFF1F8E0F0A
:100840009F1FFC01EC5EFE4F808186FF12C08091ED
:100850001201082E000C990BFC01EE0FFF1F8E0FEA
:100860009F1FFC01EC5EFE4F808161E08F730E9450
:100870008700FF91EF91BF91AF919F918F917F91F1
:100880006F915F914F913F912F910F900FBE0F90FD
:100890001F901895FC01909113019C30A0F481E009
:1008A000890F809313019083892F90E0FC01EE0F54
:1008B000FF1F8E0F9F1FFC01EC5EFE4F88EB9BE03D
:1008C0009283818308958FEF80830895EDE4F1E0B2
:1008D0001382128288EE93E0A0E0B0E084839583D7
:1008E000A683B78384E091E09183808385EC90E0D8
:1008F0009587848784EC90E09787868780EC90E0EA
:10090000918B808B81EC90E0938B828B82EC90E0DA
:10091000958B848B86EC90E0978B868B118E128E54
:10092000138E148E8CEF91E00E944A0489EF91E0BF
:100930000E944A0486EF91E00E944A0483EF91E00E
:100940000E944A0480EF91E00E944A048DEE91E0FB
:100950000E944A048AEE91E00C944A04789484B58B
:10096000826084BD84B5816084BD85B5826085BDAB
:1009700085B5816085BD80916E00816080936E0039
:10098000109281008091810082608093810080912B
:1009900081008160809381008091800081608093DC
:1009A00080008091B10084608093B1008091B0009C
:1009B00081608093B00080917A00846080937A0097
:1009C00080917A00826080937A0080917A008160C1
:1009D00080937A0080917A00806880937A001092E8
:1009E000C100E0915D01F0915E0182E08083E091C1
:1009F0005901F0915A011082E0915B01F0915C0184
:100A00008FEC808310926501E0916101F0916201A9
:100A100086E08083E0915F01F091600180818061D8
:100A20008083E0915F01F091600180818860808324
:100A3000E0915F01F0916001808180688083E091A6
:100A40005F01F091600180818F7D80836DE070E0B7
:100A500089EF91E00E946D026CE070E086EF91E01A
:100A60000E946D026BE070E083EF91E00E946D02E6
:100A700069E070E080EF91E00E946D0268E070E054
:100A80008DEE91E00E946D0267E070E08AEE91E0E9
:100A90000E946D0265E070E08CEF91E00E946D02B3
:100AA00023E2222E312C08E810E0C8E5D2E08DE4E4
:100AB00091E00E948601892B09F4E7C0C1010197EA
:100AC000F1F78DE491E00E941101811189C088E362
:100AD00091E00E9425018CE391E00E942501809025
:100AE000380190903901A0903A01B0903B014090BC
:100AF0003C0150903D0160903E0170903F01A30188
:100B00009201C501B4010E947C0720E030E048EC6E
:100B100052E40E9448060E94E807CB01770FAA0B17
:100B2000BB0B9C01AD012C593F4F4F4F5F4FA8E1CC
:100B3000BCEF0E94330728EC30E040E050E00E9418
:100B4000060769017A0180EDC80E87E0D81EE11C16
:100B5000F11CB60189EF91E00E943702B60186EFE1
:100B600091E00E943702B60183EF91E00E943702C4
:100B7000A3019201C501B4010E947B0720E030E08F
:100B800048EC52E40E9448060E94E807CB01770F28
:100B9000AA0BBB0B9C01AD012C593F4F4F4F5F4F30
:100BA000A8E1BCEF0E94330728EC30E040E050E0C1
:100BB0000E94060769017A0180EDC80E87E0D81E01
:100BC000E11CF11CB60180EF91E00E943702B601F2
:100BD0008DEE91E00E943702B6018AEE91E053C09B
:100BE000823009F052C080E491E00E9425016091BA
:100BF00040017091410180914201909143010E9416
:100C0000E807603282E07807E4F577FD06C0653BCF
:100C100071052CF064EB70E002C060E070E0809140
:100C2000FD016801C81AD10887FDD394CC0CDD1CE6
:100C3000CC0CDD1C0D2C000CEE08FF088091FE0191
:100C40009E01281B310987FD3395220F331F220F88
:100C5000331FC901330FAA0BBB0B9C01AD012C192B
:100C60003D094E095F09DB010E94300724EB30E0AB
:100C700040E050E00E940607C20ED31EE41EF51E9F
:100C8000B6018CEF91E00E9437020E942D020FCF37
:100C90000E945B060C94CC060E94BE0638F00E94AF
:100CA000C50620F0952311F00C94B5060C94BB06F4
:100CB00011240C9400070E94DD0670F3959FC1F388
:100CC000950F50E0551F629FF001729FBB27F00DFA
:100CD000B11D639FAA27F00DB11DAA1F649F66274F
:100CE000B00DA11D661F829F2227B00DA11D621F9E
:100CF000739FB00DA11D621F839FA00D611D221F58
:100D0000749F3327A00D611D231F849F600D211D3B
:100D1000822F762F6A2F11249F5750409AF0F1F0BE
:100D200088234AF0EE0FFF1FBB1F661F771F881F27
:100D300091505040A9F79E3F510580F00C94B506A4
:100D40000C9400075F3FE4F3983ED4F386957795C3
:100D50006795B795F795E7959F5FC1F7FE2B880FCD
:100D6000911D9695879597F9089597F99F6780E863
:100D700070E060E008959FEF80EC089500240A94ED
:100D80001616170618060906089500240A94121666
:100D90001306140605060895092E0394000C11F499
:100DA000882352F0BB0F40F4BF2B11F460FF04C046
:100DB0006F5F7F4F8F4F9F4F089557FD9058440F9F
:100DC000551F59F05F3F71F04795880F97FB991FAA
:100DD00061F09F3F79F08795089512161306140667
:100DE000551FF2CF4695F1DF08C0161617061806F4
:100DF000991FF1CF86957105610508940895E894CF
:100E0000BB2766277727CB0197F90895052E97FB17
:100E10001EF400940E941D0757FD07D00E9438075A
:100E200007FC03D04EF40C941D0750954095309567
:100E300021953F4F4F4F5F4F089590958095709546
:100E400061957F4F8F4F9F4F08950E945A07A59F2E
:100E5000900DB49F900DA49F800D911D11240895B5
:100E6000B7FF0C9425070E942507821B930B08955A
:100E7000A1E21A2EAA1BBB1BFD010DC0AA1FBB1F9E
:100E8000EE1FFF1FA217B307E407F50720F0A21B10
:100E9000B30BE40BF50B661F771F881F991F1A947D
:100EA00069F760957095809590959B01AC01BD01A7
:100EB000CF010895A29FB001B39FC001A39F700D01
:100EC000811D1124911DB29F700D811D1124911D52
:100ED0000895991B79E004C0991F961708F0961B96
:100EE000881F7A95C9F780950895EE0FFF1F05902A
:100EF000F491E02D09945058BB27AA270E9493072C
:100F00000C94CC060E94BE0638F00E94C50620F064
:100F100039F49F3F19F426F40C94BB060EF4E095C7
:100F2000E7FB0C94B506E92F0E94DD0658F3BA17CB
:100F3000620773078407950720F079F4A6F50C94EF
:100F4000FF060EF4E0950B2EBA2FA02D0B01B90170
:100F500090010C01CA01A0011124FF27591B99F02F
:100F6000593F50F4503E68F11A16F040A22F232F3B
:100F7000342F4427585FF3CF469537952795A7958B
:100F8000F0405395C9F77EF41F16BA0B620B730B32
:100F9000840BBAF09150A1F0FF0FBB1F661F771FA3
:100FA000881FC2F70EC0BA0F621F731F841F48F458
:100FB000879577956795B795F7959E3F08F0B0CFE1
:100FC0009395880F08F09927EE0F979587950895C8
:100FD0000E94EF076894B1110C94000708950E94D5
:100FE000E50688F09F5798F0B92F9927B751B0F0D0
:100FF000E1F0660F771F881F991F1AF0BA95C9F79D
:1010000014C0B13091F00E94FF06B1E008950C9435
:10101000FF06672F782F8827B85F39F0B93FCCF3E8
:10102000869577956795B395D9F73EF49095809519
:10103000709561957F4F8F4F9F4F089581E090E0AD
:0A104000F8940C942308F894FFCFF5
:10104A0000000000BE01D40002010B02860111015A
:02105A0078011B
:00000001FF
